:020000040800F2
:1000000000000524110D0008D90B0008DF0B0008C3
:10001000E50B0008EB0B0008F10B000800000000E6
:100020000000000000000000000000005112000865
:10003000F70B000800000000A1140008050C0008E0
:10004000610D0008610D0008610D0008610D0008D8
:10005000610D0008610D0008610D0008610D0008C8
:10006000610D0008610D0008610D0008610D0008B8
:10007000610D0008610D0008610D0008610D0008A8
:10008000610D0008610D0008610D0008610D000898
:10009000610D0008610D0008610D0008610D000888
:1000A000610D0008610D0008610D0008610D000878
:1000B000610D0008610D0008610D0008610D000868
:1000C000610D0008610D0008610D0008610D000858
:1000D000610D0008610D0008610D0008610D000848
:1000E000610D0008610D000800000000610D0008AE
:1000F000610D0008610D0008610D0008610D000828
:10010000610D0008610D0008610D0008610D000817
:10011000610D0008610D0008610D0008610D000807
:10012000610D0008610D0008610D0008610D0008F7
:10013000610D0008610D0008610D0008610D0008E7
:1001400000000000000000000000000000000000AF
:10015000610D0008610D0008610D0008610D0008C7
:10016000610D0008610D0008610D0008610D0008B7
:10017000610D0008610D0008610D0008000000001D
:10018000610D0008610D0008610D0008610D000897
:10019000610D0008610D0008610D0008610D000887
:1001A000610D0008610D0008610D000800000000ED
:1001B000610D0008610D0008610D0008610D000867
:1001C000610D0008610D0008000000000000000043
:1001D0000000000000000000610D000800000000A9
:1001E000000000000000000000000000000000000F
:1001F0000000000000000000610D0008610D000813
:10020000610D0008610D000800000000610D00088C
:10021000610D0008610D0008610D0008610D000806
:10022000610D000800000000610D000800000000E2
:10023000610D0008610D000800000000610D00085C
:10024000610D0008610D0008610D0008610D0008D6
:10025000610D0008610D0008610D0008610D0008C6
:10026000610D0008610D0008610D0008610D0008B6
:10027000610D0008610D0008610D0008000000001C
:10028000610D0008610D0008610D0008610D000896
:1002900000000000610D0008610D00080000000072
:1002A00000000000610D0008610D0008610D0008EC
:1002B000610D0008610D0008610D0008610D000866
:0C02C000610D0008610D0008610D0008D0
:1002D00010B5054C237833B9044B13B10448AFF380
:1002E00000800123237010BD1400002400000000D2
:1002F0001080000808B5034B1BB103490348AFF356
:10030000008008BD000000001800002410800008D4
:1003100053B94AB9002908BF00281CBF4FF0FF316C
:100320004FF0FF3000F070B9ADF1080C6DE904CE6C
:1003300000F006F8DDF804E0DDE9022304B07047C0
:100340002DE9F047089E0D4604460F46002B4AD182
:100350008A42944665D9B2FA82F343B102FA03FCA9
:10036000C3F120029F4020FA02F217439C404FEA5B
:100370001C4E1FFA8CF5B7FBFEF1220C0EFB117719
:1003800042EA074201FB05F090420AD91CEB020247
:1003900001F1FF3780F01C81904240F2198102394F
:1003A0006244121AA4B2B2FBFEF00EFB102244EA21
:1003B000024400FB05F5A5420AD91CEB040400F138
:1003C000FF3280F00781A54240F204816444023884
:1003D00040EA0140641B00211EB1DC400023C6E955
:1003E0000043BDE8F0878B4208D9002E00F0ED8075
:1003F0000021C6E900050846BDE8F087B3FA83F19D
:10040000002949D1AB4202D3824200F2F880841A1B
:1004100065EB030201201746002EE2D0C6E9004733
:10042000DFE702B9FFDEB2FA82F3002B40F09080E2
:100430008A1A4FEA1C471FFA8CFE0121B2FBF7F51E
:1004400007FB1520220C42EA00420EFB05F0904209
:1004500008D91CEB020205F1FF3802D2904200F2EB
:10046000CB804546121AA4B2B2FBF7F007FB10226C
:1004700044EA02440EFB00FEA64508D91CEB040426
:1004800000F1FF3202D2A64500F2BB801046A4EB79
:100490000E0440EA05409FE7C1F120078B4022FA95
:1004A00007FC4CEA030C05FA01F420FA07F3FD40BF
:1004B0004FEA1C492343B5FBF9F81FFA8CFE09FBF0
:1004C00018551C0C44EA054408FB0EF5A54202FA37
:1004D00001F200FA01F00BD91CEB040408F1FF3A19
:1004E00080F08880A54240F28580A8F1020864442B
:1004F000641B9DB2B4FBF9F309FB134445EA0444C1
:1005000003FB0EFEA64508D91CEB040403F1FF35DE
:100510006CD2A6456AD9023B644443EA0843A3FB74
:100520000295A4EB0E04AC42C846AE4656D353D057
:1005300056B1B0EB080264EB0E0404FA07F7CA40A8
:10054000CC401743C6E9007418460021BDE8F08787
:10055000C3F1200102FA03FC20FA01F225FA01F1AD
:100560009D402A434FEA1C471FFA8CFEB1FBF7F06F
:1005700007FB1015110C41EA054100FB0EF58D42F9
:1005800004FA03F408D91CEB010100F1FF382FD263
:100590008D422DD902386144491B92B2B1FBF7F567
:1005A00007FB151142EA014205FB0EF1914208D901
:1005B0001CEB020205F1FF3816D2914214D9023D1C
:1005C0006244521A45EA004138E73146304608E7AE
:1005D0003946E6E61046FBE64845A9D2B9EB0208E3
:1005E00065EB0C0E013BA3E74546EAE72B4694E793
:1005F0004046D1E7D0467BE7023D624432E70846F9
:100600000AE76444023842E7704700BF034613F824
:10061000012B002AFBD1181A0138704780B500AFB2
:1006200007F02AFC00F01EFA00F034F800F0DCF8C5
:1006300000F08EF800F0CAFB0D4A00210D4800F0D2
:100640000FFC03460C4A13600C4A00210C4800F0D2
:1006500007FC03460B4A13600B4A00210B4800F0CD
:10066000FFFB03460A4A136000F0D4FBFEE700BF1D
:10067000DC800008BD080008C400002400810008D8
:1006800049090008C800002424810008D509000891
:10069000CC00002480B59CB000AF07F124034C22AD
:1006A0000021184607F07AFC3B1D20220021184645
:1006B00007F074FC022003F015FC00233B60234B81
:1006C0009B6923F44043214A43F4804393611F4BC9
:1006D0009B6903F440433B603B6800BF1B4B9B6935
:1006E00003F40053B3F5005FF8D102237B620123CA
:1006F0003B6340237B630023BB6407F1240318465C
:1007000005F0ECF90346002B01D000F0D7F93F23A8
:100710007B600023BB600023FB6000233B61002360
:100720007B610023BB610023FB6100233B623B1D17
:100730000121184605F0ACFD0346002B01D000F066
:10074000BDF900BF7037BD4680BD00BF00480258EC
:1007500080B500AF224B234A1A60214B4FF4E1329F
:100760005A601F4B00229A601D4B0022DA601C4B1E
:1007700000221A611A4B0C225A61194B00229A610D
:10078000174B0022DA61164B00221A62144B00222A
:100790005A62134B00229A62114806F009FA034686
:1007A000002B01D000F08AF900210D4806F035F940
:1007B0000346002B01D000F081F90021084806F023
:1007C0006AF90346002B01D000F078F9044806F0DE
:1007D000EBF80346002B01D000F070F900BF80BD9C
:1007E000300000240048004080B588B000AF07F119
:1007F0000C0300221A605A609A60DA601A612C4B6E
:10080000D3F8E0302A4A43F00203C2F8E030284B24
:10081000D3F8E03003F00203BB60BB68244BD3F88D
:10082000E030234A43F00803C2F8E030204BD3F80D
:10083000E03003F008037B607B681D4BD3F8E030A9
:100840001B4A43F01003C2F8E030194BD3F8E030F4
:1008500003F010033B603B68002244F2010115489D
:1008600003F00CFB00220221134803F007FB44F2C3
:100870000103FB6001233B6100237B610023BB611B
:1008800007F10C0319460B4803F050F90223FB60F3
:1008900001233B6100237B610023BB6107F10C0353
:1008A0001946054803F042F900BF2037BD4680BD18
:1008B000004402580004025800100258B0B588B035
:1008C00000AF786007F10C031B4A1C4615460FCD9C
:1008D0000FC42B681A46228002341B0C237007F1C8
:1008E0000C031846FFF792FE03469AB207F10C017B
:1008F0004FF47A73114806F0ABF90121104803F068
:10090000D6FA4FF4FA7000F03DFB0E4B07F10C04E1
:100910001D460FCD0FC42B68236007F10C0318464A
:10092000FFF774FE03469AB207F10C014FF47A7395
:10093000024806F08DF9C5E74C800008300000241D
:100940000004025860800008B0B588B000AF78603D
:1009500007F10C031B4A1C4615460FCD0FC42B682C
:100960001A46228002341B0C237007F10C03184630
:10097000FFF74CFE03469AB207F10C014FF47A736D
:10098000114806F065F90221104803F090FA40F290
:10099000EE2000F0F7FA0E4B07F10C041D460FCDC8
:1009A0000FC42B68236007F10C031846FFF72EFED7
:1009B00003469AB207F10C014FF47A73024806F02D
:1009C00047F9C5E774800008300000240010025881
:1009D00088800008B0B588B000AF786007F10C03DC
:1009E0001C4A1C4615460FCD0FC42B681A462280A0
:1009F00002341B0C237007F10C031846FFF706FEA8
:100A000003469AB207F10C014FF47A73124806F0CC
:100A10001FF94FF48041114803F049FA4FF4167062
:100A200000F0B0FA0E4B07F10C041D460FCD0FC4B9
:100A30002B68236007F10C031846FFF7E7FD034618
:100A40009AB207F10C014FF47A73034806F000F9EB
:100A5000C4E700BF9C800008300000240004025856
:100A6000B080000880B584B000AF3B4600221A6019
:100A70005A609A60DA6002F0DDFF01233B700023C8
:100A80007B7000237B601F233B7287237B720023D4
:100A9000BB720023FB7201233B7301237B73002392
:100AA000BB730023FB733B46184602F0FBFF042098
:100AB00002F0D8FF00BF1037BD4680BD80B400AF44
:100AC00072B600BFFEE7000080B582B000AF0C4BED
:100AD000D3F8F4300A4A43F00203C2F8F430084B6A
:100AE000D3F8F43003F002037B607B6800220F210F
:100AF0006FF0010002F077FF00BF0837BD4680BDF0
:100B00000044025880B5B8B000AF786007F1CC035C
:100B100000221A605A609A60DA601A6107F11003C5
:100B2000B8220021184607F039FA7B681B68274A6B
:100B3000934246D14FF002024FF00003C7E904236D
:100B40000023C7F8843007F11003184603F004FAB5
:100B50000346002B01D0FFF7B1FF1D4BD3F8E8305F
:100B60001B4A43F48023C2F8E830194BD3F8E8302D
:100B700003F48023FB60FB68154BD3F8E030144A84
:100B800043F00803C2F8E030114BD3F8E03003F033
:100B90000803BB60BB684FF44073C7F8CC30022336
:100BA000C7F8D0300023C7F8D4300023C7F8D830B6
:100BB0000723C7F8DC3007F1CC031946054802F0DB
:100BC000B5FF00BFE037BD4680BD00BF0048004014
:100BD00000440258000C025880B400AFFEE780B415
:100BE00000AFFEE780B400AFFEE780B400AFFEE7E1
:100BF00080B400AFFEE780B400AF00BFBD465DF833
:100C0000047B704780B500AF07F0A8F902F000FA46
:100C10000346012B01D000F077FC00BF80BD00002F
:100C200080B400AF324BD3F88830314A43F47003BC
:100C3000C2F888302F4B1B6803F00F03062B07D830
:100C40002C4B1B6823F00F032A4A43F00703136061
:100C5000294B1B68284A43F001031360264B0022EE
:100C60001A61254B1A682449244B13400B60214B11
:100C70001B6803F00803002B07D01E4B1B6823F0F2
:100C80000F031C4A43F0070313601B4B00229A61B9
:100C9000194B0022DA61184B00221A62164B184ACF
:100CA0009A62154B174ADA62134B174A1A63124BB2
:100CB00000225A63104B144A9A630F4B0022DA63E6
:100CC0000D4B114A1A640C4B00225A640A4B1B68E4
:100CD000094A23F480231360074B00221A660B4B4A
:100CE00043F2D2021A6000BFBD465DF8047B704734
:100CF00000ED00E000200052004402587FEDF6EACB
:100D0000000202020000FF018002010100400052C7
:100D1000DFF834D0FFF784FF0C480D490D4A00235B
:100D200002E0D458C4500433C4188C42F9D30A4AA0
:100D30000A4C002301E013600432A242FBD307F007
:100D400035F9FFF76BFC7047000005240000002414
:100D5000140000249081000814000024244A002478
:100D6000FEE7000080B483B000AF03463960FB802B
:100D7000B7F90630002B0ADB3B68DAB20C49B7F949
:100D800006301201D2B20B4483F800230AE03B681C
:100D9000DAB20849FB8803F00F03043B1201D2B218
:100DA0000B441A7600BF0C37BD465DF8047B7047D4
:100DB00000E100E000ED00E080B500AF00216FF041
:100DC0000400FFF7CFFF00BF80BD000080B483B0F8
:100DD00000AFEFF305833B603B68002B03D06FF05F
:100DE00005037B600CE00A4B1B68002B05D1084B08
:100DF00001221A6000237B6002E04FF0FF337B602A
:100E00007B6818460C37BD465DF8047B704700BF11
:100E1000D000002480B582B000AFEFF305833B60C3
:100E20003B68002B03D06FF005037B6010E00B4B99
:100E30001B68012B09D1FFF7BFFF084B02221A6084
:100E400001F09EFC00237B6002E04FF0FF337B60EB
:100E50007B6818460837BD4680BD00BFD00000241F
:100E600080B58EB004AFF860B9607A6000233B6152
:100E7000EFF305837B617B69002B7ED1FB68002B40
:100E80007BD080233B621823FB6100237B624FF001
:100E9000FF33BB617B68002B45D07B681B68002B50
:100EA00002D07B681B687B627B689B69002B02D049
:100EB0007B689B69FB61FB69002B08D0FB69382BC1
:100EC00005D87B685B6803F00103002B01D0002389
:100ED00054E07B685B69002B03D07B685B699B08EF
:100EE0003B627B689B68002B0ED07B68DB685B2BCA
:100EF0000AD97B681B69002B06D07B685B69002BD5
:100F000002D00123BB6110E07B689B68002B0CD1F1
:100F10007B68DB68002B08D17B681B69002B04D140
:100F20000023BB6101E00023BB61BB69012B10D131
:100F30007B681B697A68926802920193FB6900934F
:100F4000BB683A6A796AF86801F044FA03463B6183
:100F500013E0BB69002B10D13B6A9AB207F1100372
:100F60000193FB690093BB68796AF86801F08FFA16
:100F70000346012B01D000233B613B69184628370B
:100F8000BD4680BD80B584B000AF7860EFF30583C7
:100F9000BB60BB68002B03D06FF00503FB6007E06C
:100FA0000023FB607B68002B02D0786801F0B4FB63
:100FB000FB6818461037BD4680BD000080B485B080
:100FC00000AFF860B9607A60FB68074A1A60BB68D6
:100FD000064A1A607B6880221A6000BF1437BD463B
:100FE0005DF8047B704700BFD4000024300100246A
:100FF00080B485B000AFF860B9607A60FB68074ADA
:101000001A60BB68064A1A607B684FF480721A60E7
:1010100000BF1437BD465DF8047B704730030024E1
:101020008C03002480B483B000AF78607B6803F148
:1010300008027B685A607B684FF0FF329A607B68D9
:1010400003F108027B68DA607B6803F108027B68C1
:101050001A617B6800221A6000BF0C37BD465DF83C
:10106000047B704780B483B000AF78607B68002257
:101070001A6100BF0C37BD465DF8047B704780B431
:1010800085B000AF786039607B685B68FB603B6867
:10109000FA685A60FB689A683B689A60FB689B68CC
:1010A0003A685A60FB683A689A603B687A681A61E5
:1010B0007B681B685A1C7B681A6000BF1437BD46EA
:1010C0005DF8047B704780B485B000AF786039600C
:1010D0003B681B68BB60BB68B3F1FF3F03D17B6813
:1010E0001B69FB600CE07B680833FB6002E0FB6877
:1010F0005B68FB60FB685B681B68BA689A42F6D263
:10110000FB685A683B685A603B685B683A689A605B
:101110003B68FA689A60FB683A685A603B687A688C
:101120001A617B681B685A1C7B681A6000BF143701
:10113000BD465DF8047B704780B485B000AF786031
:101140007B681B69FB607B685B687A6892689A6061
:101150007B689B687A6852685A60FB685B687A684B
:101160009A4203D17B689A68FB685A607B680022C8
:101170001A61FB681B685A1EFB681A60FB681B68D3
:1011800018461437BD465DF8047B704780B485B0BF
:1011900000AFF860B9607A60FB68043BFB60FB68F5
:1011A0004FF080721A60FB68043BFB60BB6823F061
:1011B0000102FB681A60FB68043BFB600C4AFB6899
:1011C0001A60FB68143BFB607A68FB681A60FB6876
:1011D000043BFB60FB686FF002021A60FB68203B77
:1011E000FB60FB6818461437BD465DF8047B70470A
:1011F000F511000880B485B000AF00237B60124B6E
:101200001B68B3F1FF3F0AD04FF0500383F31188FE
:10121000BFF36F8FBFF34F8FFB6000BFFEE74FF050
:10122000500383F31188BFF36F8FBFF34F8FBB6001
:1012300000BF00BF7B68002BFCD000BF00BF14378D
:10124000BD465DF8047B70470800002400000000E4
:10125000074B19680868B0E8F04F80F30988BFF3BE
:101260006F8F4FF0000080F311887047AFF300805C
:10127000F443002400BF00BF08480068006880F302
:1012800008884FF0000080F3148862B661B6BFF39F
:101290004F8FBFF36F8F00DF00BF00BF08ED00E08E
:1012A00080B586B000AF464B1B68464A93420AD1D0
:1012B0004FF0500383F31188BFF36F8FBFF34F8F4D
:1012C0003B6100BFFEE73E4B1B683F4A93420AD199
:1012D0004FF0500383F31188BFF36F8FBFF34F8F2D
:1012E000FB6000BFFEE7394B7B617B691B78DBB29B
:1012F0007B607B69FF221A707B691B78DBB2FB7015
:10130000FB78DBB203F05003DAB2314B1A70314B89
:1013100007221A6009E02F4B1B68013B2D4A13601E
:10132000FB78DBB25B00DBB2FB70FB78DBB203F077
:101330008003802BEFD0274B1B68C3F10703042BDE
:101340000AD04FF0500383F31188BFF36F8FBFF3C0
:101350004F8FBB6000BFFEE71E4B1B681B021D4A80
:1013600013601C4B1B6803F4E0631A4A13607B682C
:10137000DAB27B691A70184B1B68174A43F4700382
:101380001360154B1B68144A43F07043136000F060
:10139000DDF8124B00221A6000F0FCF8104B1B68BD
:1013A0000F4A43F040431360FFF766FF01F0C4FBB0
:1013B000FFF720FF002318461837BD4680BD00BF49
:1013C00000ED00E071C20F4170C20F4100E400E087
:1013D0008C0700249007002420ED00E00800002482
:1013E00034EF00E080B483B000AF4FF0500383F3DC
:1013F0001188BFF36F8FBFF34F8F7B6000BF0F4B20
:101400001B6801330D4A13600C4B1B68012B0FD175
:101410000B4B1B68DBB2002B0AD04FF0500383F359
:101420001188BFF36F8FBFF34F8F3B6000BFFEE7A4
:1014300000BF0C37BD465DF8047B704708000024F0
:1014400004ED00E080B483B000AF124B1B68002BAA
:101450000AD14FF0500383F31188BFF36F8FBFF3AE
:101460004F8F7B6000BFFEE70A4B1B68013B094AB8
:101470001360084B1B68002B05D100233B603B68C1
:1014800083F3118800BF00BF0C37BD465DF8047BB5
:10149000704700BF080000240000000000000000AA
:1014A000EFF30980BFF36F8F154B1A681EF0100F12
:1014B00008BF20ED108A20E9F04F10602DE90900E7
:1014C0004FF0500080F31188BFF34F8FBFF36F8F41
:1014D00001F032FB4FF0000080F3118809BC19685D
:1014E0000868B0E8F04F1EF0100F08BFB0EC108A8B
:1014F00080F30988BFF36F8F704700BFAFF30080A0
:10150000F443002400BF00BF80B582B000AF4FF0AD
:10151000500383F31188BFF36F8FBFF34F8F7B604E
:1015200000BF01F04FFA0346002B03D0064B4FF0EB
:1015300080521A6000233B603B6883F3118800BF30
:1015400000BF0837BD4680BD04ED00E080B400AFA9
:101550000B4B00221A600B4B00221A600A4B1B68CF
:101560000A4AA2FB03239B09094A013B1360044B6F
:1015700007221A6000BFBD465DF8047B704700BFBC
:1015800010E000E018E000E000000024D34D6210FD
:1015900014E000E0DFF80C00016841F47001016024
:1015A000704700BF88ED00E080B485B000AFEFF376
:1015B0000583FB60FB680F2B14D9174AFB681344A3
:1015C0001B78FB72154B1B78FA7A9A420AD24FF0BD
:1015D000500383F31188BFF36F8FBFF34F8F7B608E
:1015E00000BFFEE70E4B1B6803F4E0620D4B1B6867
:1015F0009A420AD94FF0500383F31188BFF36F8FDB
:10160000BFF34F8F3B6000BFFEE700BF1437BD46FE
:101610005DF8047B704700BFF0E300E08C07002416
:101620000CED00E09007002480B58AB000AF786030
:101630000023FB6101F00AF95B4B1B68002B01D111
:1016400000F020F9594B1A687B681340002B40F0DA
:1016500093807B68002B1DD008227B6813447B603D
:101660007B6803F00703002B14D07B6823F007038B
:1016700008337B607B6803F00703002B0AD04FF030
:10168000500383F31188BFF36F8FBFF34F8F7B61DC
:1016900000BFFEE77B68002B6ED0454B1B687A6865
:1016A0009A4269D8434B3B62424B1B687B6204E021
:1016B0007B6A3B627B6A1B687B627B6A5B687A68D9
:1016C0009A4203D97B6A1B68002BF1D1364B1B6809
:1016D0007A6A9A4250D03B6A1B6808221344FB6125
:1016E0007B6A1A683B6A1A607B6A5A687B68D21AFE
:1016F00008235B009A421FD97A6A7B681344BB6156
:10170000BB6903F00703002B0AD04FF0500383F3AB
:101710001188BFF36F8FBFF34F8F3B6100BFFEE7B0
:101720007B6A5A687B68D21ABB695A607B6A7A689E
:101730005A60B86900F008F91D4B1A687B6A5B684B
:10174000D31A1B4A13601A4B1A681B4B1B689A4228
:1017500003D2174B1B68184A13607B6A5A68134BF5
:101760001B681A437B6A5A607B6A00221A60134B1B
:101770001B680133114A136001F076F8FB6903F02E
:101780000703002B0AD04FF0500383F31188BFF3F7
:101790006F8FBFF34F8FFB6000BFFEE7FB691846FA
:1017A0002837BD4680BD00BF9C430024B0430024C1
:1017B000A043002494430024A4430024A84300240D
:1017C00080B586B000AF78607B687B617B68002B5A
:1017D0004DD008235B427A6913447B617B693B618E
:1017E0003B695A68244B1B681340002B0AD14FF009
:1017F000500383F31188BFF36F8FBFF34F8FFB60EC
:1018000000BFFEE73B691B68002B0AD04FF0500376
:1018100083F31188BFF36F8FBFF34F8FBB6000BF9F
:10182000FEE73B695A68144B1B681340002B1ED01F
:101830003B691B68002B1AD13B695A680E4B1B6829
:10184000DB431A403B695A6001F000F83B695A6873
:101850000A4B1B681344094A1360386900F074F896
:10186000074B1B680133064A136000F0FDFF00BF01
:101870001837BD4680BD00BFB0430024A0430024FC
:10188000AC43002480B485B000AF4FF47053BB600C
:10189000274BFB60FB6803F00703002B0CD0FB68B1
:1018A0000733FB60FB6823F00703FB60BA68FB6843
:1018B000D31A1F4A1344BB60FB687B601D4A7B68D8
:1018C00013601C4B00225A607B68BA681344FB60AB
:1018D0000822FB689B1AFB60FB6823F00703FB6090
:1018E000FB68154A1360144B1B6800225A60124BA8
:1018F0001B6800221A607B683B603B68FA68D21A5A
:101900003B685A600C4B1A683B681A603B685B681E
:101910000A4A13603B685B68094A1360094B4FF041
:1019200000421A6000BF1437BD465DF8047B704763
:1019300094070024944300249C430024A4430024DF
:10194000A0430024B043002480B485B000AF786089
:10195000284BFB6002E0FB681B68FB60FB681B68B0
:101960007A689A42F7D8FB68BB60FB685B68BA6824
:1019700013447A689A4208D1FB685A687B685B68AE
:101980001A44FB685A60FB687B607B68BB607B68BD
:101990005B68BA681A44FB681B689A4218D1FB68F6
:1019A0001A68154B1B689A420DD07B685A68FB6811
:1019B0001B685B681A447B685A60FB681B681A687E
:1019C0007B681A6008E00C4B1A687B681A6003E0B9
:1019D000FB681A687B681A60FA687B689A4202D0D2
:1019E000FB687A681A6000BF1437BD465DF8047B57
:1019F000704700BF944300249C43002480B584B00A
:101A000000AF786039607B68FB60FB68002B0AD10F
:101A10004FF0500383F31188BFF36F8FBFF34F8FE5
:101A2000BB6000BFFEE7FFF7DDFCFB681A68FB68E0
:101A3000DB6BF968096C01FB03F31A44FB689A60DD
:101A4000FB6800229A63FB681A68FB685A60FB68AF
:101A50001A68FB68DB6B013BF968096C01FB03F357
:101A60001A44FB68DA60FB68FF2283F84420FB68B5
:101A7000FF2283F845203B68002B14D1FB681B69CB
:101A8000002B1AD0FB681033184601F003F9034607
:101A9000002B12D00C4B4FF080521A60BFF34F8FC7
:101AA000BFF36F8F09E0FB6810331846FFF7BAFAEF
:101AB000FB6824331846FFF7B5FAFFF7C3FC012390
:101AC00018461037BD4680BD04ED00E080B58EB0ED
:101AD00002AFF860B9607A603B60FB68002B0AD106
:101AE0004FF0500383F31188BFF36F8FBFF34F8F15
:101AF000BB6200BFFEE73B68002B0AD14FF05003EA
:101B000083F31188BFF36F8FBFF34F8F7B6200BFEA
:101B1000FEE77B68002B02D0BB68002B01D00123BD
:101B200000E00023002B0AD14FF0500383F311880B
:101B3000BFF36F8FBFF34F8F3B6200BFFEE77B6841
:101B4000002B02D1BB68002B01D1012300E0002350
:101B5000002B0AD14FF0500383F31188BFF36F8F2E
:101B6000BFF34F8FFB6100BFFEE750237B617B69B2
:101B7000502B0AD04FF0500383F31188BFF36F8FBF
:101B8000BFF34F8FBB6100BFFEE77B693B68FB6221
:101B9000FB6A002B0DD0FB6A012283F8462097F8E0
:101BA0003820FB6A009313467A68B968F86800F039
:101BB00005F8FB6A18463037BD4680BD80B584B055
:101BC00000AFF860B9607A60FB70BB68002B03D18E
:101BD000BB69BA691A6002E0BB697A681A60BB69BE
:101BE000FA68DA63BB69BA681A640121B869FFF759
:101BF00005FFBB69FA7883F84C2000BF1037BD465B
:101C000080BD000080B58EB000AFF860B9607A602A
:101C10003B6000237B63FB683B633B6B002B0AD17B
:101C20004FF0500383F31188BFF36F8FBFF34F8FD3
:101C3000BB6200BFFEE7BB68002B03D13B6B1B6C94
:101C4000002B01D1012300E00023002B0AD14FF02B
:101C5000500383F31188BFF36F8FBFF34F8F7B6205
:101C600000BFFEE73B68022B03D13B6BDB6B012B14
:101C700001D1012300E00023002B0AD14FF05003D3
:101C800083F31188BFF36F8FBFF34F8F3B6200BFA9
:101C9000FEE701F0BDF90346002B02D17B68002B63
:101CA00001D1012300E00023002B0AD14FF05003A3
:101CB00083F31188BFF36F8FBFF34F8FFB6100BFBA
:101CC000FEE7FFF78FFB3B6B9A6B3B6BDB6B9A423C
:101CD00002D33B68022B29D13A68B968386B00F00F
:101CE0000BFAF8623B6B5B6A002B10D03B6B243322
:101CF000184600F0CFFF0346002B13D03F4B4FF0A8
:101D000080521A60BFF34F8FBFF36F8F0AE0FB6AF8
:101D1000002B07D0394B4FF080521A60BFF34F8F22
:101D2000BFF36F8FFFF78EFB012363E07B68002B0F
:101D300003D1FFF787FB00235CE07B6B002B06D110
:101D400007F11403184601F009F801237B63FFF73C
:101D500079FB00F07BFDFFF745FB3B6B93F84430CC
:101D60005BB2B3F1FF3F03D13B6B002283F8442009
:101D70003B6B93F845305BB2B3F1FF3F03D13B6B54
:101D8000002283F84520FFF75DFB3A1D07F114039D
:101D90001146184600F0F8FF0346002B24D1386B9B
:101DA00000F0A2FA0346002B18D03B6B10337A6880
:101DB0001146184600F01EFF386B00F02DFA00F0B7
:101DC00053FD0346002B7FF47CAF0C4B4FF0805249
:101DD0001A60BFF34F8FBFF36F8F72E7386B00F05D
:101DE0001BFA00F041FD6CE7386B00F015FA00F0CB
:101DF0003BFD002318463837BD4680BD04ED00E0AA
:101E000080B590B000AFF860B9607A603B60FB6865
:101E1000BB63BB6B002B0AD14FF0500383F31188D7
:101E2000BFF36F8FBFF34F8FBB6200BFFEE7BB688E
:101E3000002B03D1BB6B1B6C002B01D1012300E0F5
:101E40000023002B0AD14FF0500383F31188BFF316
:101E50006F8FBFF34F8F7B6200BFFEE73B68022BA3
:101E600003D1BB6BDB6B012B01D1012300E000230D
:101E7000002B0AD14FF0500383F31188BFF36F8F0B
:101E8000BFF34F8F3B6200BFFEE7FFF78DFBEFF321
:101E900011824FF0500383F31188BFF36F8FBFF3AC
:101EA0004F8FFA61BB61FB697B63BB6B9A6BBB6B4A
:101EB000DB6B9A4202D33B68022B2FD1BB6B93F8AA
:101EC000453087F83330BB6B9B6BFB623A68B9686F
:101ED000B86B00F011F997F93330B3F1FF3F12D12D
:101EE000BB6B5B6A002B16D0BB6B2433184600F02B
:101EF000D1FE0346002B0ED07B68002B0BD07B68F5
:101F000001221A6007E097F833300133DBB25AB28E
:101F1000BB6B83F845200123FB6301E00023FB63D7
:101F20007B6B7B617B6983F3118800BFFB6B184679
:101F30004037BD4680BD000080B58CB000AFF86072
:101F4000B9607A600023FB62FB68BB62BB6A002B4E
:101F50000AD14FF0500383F31188BFF36F8FBFF3A3
:101F60004F8F3B6200BFFEE7BB68002B03D1BB6A0B
:101F70001B6C002B01D1012300E00023002B0AD1B0
:101F80004FF0500383F31188BFF36F8FBFF34F8F70
:101F9000FB6100BFFEE701F03BF80346002B02D1D6
:101FA0007B68002B01D1012300E00023002B0AD124
:101FB0004FF0500383F31188BFF36F8FBFF34F8F40
:101FC000BB6100BFFEE7FFF70DFABB6A9B6B7B624C
:101FD0007B6A002B1FD0B968B86A00F0F7F87B6AFB
:101FE0005A1EBB6A9A63BB6A1B69002B0FD0BB6A7F
:101FF0001033184600F04EFE0346002B07D03D4B31
:102000004FF080521A60BFF34F8FBFF36F8FFFF70F
:1020100019FA012369E07B68002B03D1FFF712FA5C
:10202000002362E0FB6A002B06D107F1100318467B
:1020300000F094FE0123FB62FFF704FA00F006FCB7
:10204000FFF7D0F9BB6A93F844305BB2B3F1FF3FBE
:1020500003D1BB6A002283F84420BB6A93F8453061
:102060005BB2B3F1FF3F03D1BB6A002283F8452086
:10207000FFF7E8F93A1D07F110031146184600F082
:1020800083FE0346002B23D1B86A00F017F90346FC
:10209000002B17D0BB6A24337A681146184600F02B
:1020A000A9FDB86A00F0B8F800F0DEFB0346002B8B
:1020B00089D1104B4FF080521A60BFF34F8FBFF39E
:1020C0006F8F80E7B86A00F0A7F800F0CDFB7AE7E1
:1020D000B86A00F0A1F800F0C7FBB86A00F0EEF8AB
:1020E0000346002B3FF46FAF002318463037BD4640
:1020F00080BD00BF04ED00E080B586B000AFF860A1
:10210000B9607A6000237B61FB689B6B3B61FB6875
:102110001B6C002B0DD1FB681B68002B4DD1FB689D
:102120009B68184600F092FF7861FB6800229A6075
:1021300043E07B68002B19D1FB685868FB681B6C77
:102140001A46B96805F056FFFB685A68FB681B6CB5
:102150001A44FB685A60FB685A68FB689B689A429D
:102160002BD3FB681A68FB685A6026E0FB68D868C6
:10217000FB681B6C1A46B96805F03CFFFB68DA681F
:10218000FB681B6C5B421A44FB68DA60FB68DA6828
:10219000FB681B689A4207D2FB689A68FB681B6C55
:1021A0005B421A44FB68DA607B68022B05D13B690D
:1021B000002B02D03B69013B3B613B695A1CFB6829
:1021C0009A637B6918461837BD4680BD80B582B0DA
:1021D00000AF786039607B681B6C002B18D07B687F
:1021E000DA687B681B6C1A447B68DA607B68DA68A3
:1021F0007B689B689A4203D37B681A687B68DA60C5
:102200007B68D9687B681B6C1A46386805F0F2FE5B
:1022100000BF0837BD4680BD80B584B000AF786090
:10222000FFF7E0F87B6893F84530FB7311E07B68BB
:102230005B6A002B12D07B682433184600F02AFD1D
:102240000346002B01D000F001FEFB7B013BDBB21B
:10225000FB7397F90F30002BE9DC00E000BF7B68CF
:10226000FF2283F84520FFF7EDF8FFF7BBF87B6806
:1022700093F84430BB7311E07B681B69002B12D0CC
:102280007B681033184600F005FD0346002B01D093
:1022900000F0DCFDBB7B013BDBB2BB7397F90E307A
:1022A000002BE9DC00E000BF7B68FF2283F84420BC
:1022B000FFF7C8F800BF1037BD4680BD80B584B0B9
:1022C00000AF7860FFF78EF87B689B6B002B02D124
:1022D0000123FB6001E00023FB60FFF7B3F8FB681C
:1022E00018461037BD4680BD80B584B000AF786019
:1022F000FFF778F87B689A6B7B68DB6B9A4202D1B8
:102300000123FB6001E00023FB60FFF79BF8FB6803
:1023100018461037BD4680BD80B485B000AF7860E8
:1023200039600023FB6014E00F4AFB6852F8333039
:10233000002B0BD10C49FB683A6841F833200A4A5C
:10234000FB68DB0013447A685A6006E0FB680133DF
:10235000FB60FB68072BE7D900BF00BF1437BD4601
:102360005DF8047B704700BFB443002480B586B09D
:1023700000AFF860B9607A60FB687B61FFF732F804
:102380007B6993F844305BB2B3F1FF3F03D17B69C3
:10239000002283F844207B6993F845305BB2B3F1A7
:1023A000FF3F03D17B69002283F84520FFF74AF8FD
:1023B0007B699B6B002B06D17B6924337A68B968F3
:1023C000184600F03BFC7869FFF726FF00BF18377E
:1023D000BD4680BD80B58EB004AFF860B9607A604C
:1023E0003B607B6B002B0AD14FF0500383F31188C5
:1023F000BFF36F8FBFF34F8F3B6200BFFEE7BB6B36
:10240000002B0AD14FF0500383F31188BFF36F8F75
:10241000BFF34F8FFB6100BFFEE75C233B613B696D
:102420005C2B0AD04FF0500383F31188BFF36F8FFA
:10243000BFF34F8FBB6100BFFEE73B69BB6B002B57
:102440001ED07B6B002B1BD0BB6B7B627B6A7A6BD5
:102450001A637B6A022283F85920002303937B6A64
:10246000029307F1140301933B6B00933B687A6876
:10247000B968F86800F050F8786A00F0DDF801E01B
:1024800000237B617B6918462837BD4680BD80B537
:102490008CB004AFF860B9603B601346FB80FB88EA
:1024A0009B001846FFF7C0F878617B69002B0ED0BF
:1024B0005C20FFF7B9F8F861FB69002B03D0FB69DA
:1024C0007A691A6305E07869FFF77AF901E0002379
:1024D000FB61FB69002B17D0FB69002283F85920B0
:1024E000FA8800230393FB690293FB6A0193BB6A9A
:1024F00000933B68B968F86800F00EF8F86900F0DE
:102500009BF80123BB6102E04FF0FF33BB61BB6965
:1025100018462037BD4680BD80B588B000AFF86052
:10252000B9607A603B603B6B186B7B689B001A4616
:10253000A52105F033FD3B6B1A6B79686FF04043C2
:102540000B449B001344BB61BB6923F00703BB61D1
:10255000BB6903F00703002B0AD04FF0500383F34D
:102560001188BFF36F8FBFF34F8F7B6100BFFEE712
:10257000BB68002B1FD00023FB6112E0BA68FB6927
:10258000134419783A6BFB69134434330A461A70C2
:10259000BA68FB6913441B78002B06D0FB69013332
:1025A000FB61FB690F2BE9D900E000BF3B6B002208
:1025B00083F8432003E03B6B002283F83420BB6A9E
:1025C000372B01D93723BB623B6BBA6ADA623B6BAC
:1025D000BA6ADA643B6B00221A653B6B0433184617
:1025E000FEF740FD3B6B18331846FEF73BFD3B6B97
:1025F0003A6B1A61BB6AC3F138023B6B9A613B6B61
:102600003A6B5A623B6B00225A653B6B002283F89F
:1026100058203A68F968B869FEF7B8FD02463B6B86
:102620001A60FB6A002B02D0FB6A3A6B1A6000BF8B
:102630002037BD4680BD000080B582B000AF786015
:10264000FEF7D0FE2D4B1B6801332C4A13602C4B38
:102650001B68002B09D12A4A7B681360274B1B6833
:10266000012B10D100F016FC0DE0264B1B68002B4F
:1026700009D1234B1B68DA6A7B68DB6A9A4202D86D
:102680001F4A7B681360204B1B6801331E4A13608E
:102690001D4B1A687B685A647B68DA6A1B4B1B689F
:1026A0009A4203D97B68DB6A184A13607B68DA6A4E
:1026B00013469B0013449B00154A1A447B6804335D
:1026C00019461046FEF7DBFCFEF7BCFE0D4B1B68FF
:1026D000002B0ED00A4B1B68DA6A7B68DB6A9A42D1
:1026E00007D20C4B4FF080521A60BFF34F8FBFF3ED
:1026F0006F8F00BF0837BD4680BD00BFC8480024AB
:10270000F4430024D4480024E4480024D0480024A2
:10271000F843002404ED00E080B584B000AF786099
:102720000023FB607B68002B17D0134B1B68002B2A
:102730000AD04FF0500383F31188BFF36F8FBFF3BC
:102740004F8FBB6000BFFEE700F080F80021786883
:1027500000F0EAFC00F088F8F860FB68002B07D175
:10276000064B4FF080521A60BFF34F8FBFF36F8F4D
:1027700000BF1037BD4680BDF048002404ED00E0E6
:1027800080B58AB004AF0023BB6000237B603A466B
:10279000391D07F108031846FEF710FC39687B68FD
:1027A000BA68029201930023009300230A4621494C
:1027B0002148FFF70FFE0346204A13601F4B1B689A
:1027C000002B02D001237B6101E000237B617B6948
:1027D000012B02D100F0FCFC78617B69012B16D142
:1027E0004FF0500383F31188BFF36F8FBFF34F8F08
:1027F0003B6100BF124B4FF0FF321A60114B0122B8
:102800001A60114B00221A60FEF74AFD0EE07B6948
:10281000B3F1FF3F0AD14FF0500383F31188BFF3A8
:102820006F8FBFF34F8FFB6000BFFEE700BF18370D
:10283000BD4680BDC4800008652E0008EC48002419
:10284000E8480024D4480024CC48002480B400AFD9
:10285000044B1B680133034A136000BFBD465DF89B
:10286000047B7047F048002480B584B000AF00239B
:10287000FB600023BB60424B1B68002B0AD14FF06A
:10288000500383F31188BFF36F8FBFF34F8F3B600B
:1028900000BFFEE7FEF7A6FD394B1B68013B384A37
:1028A0001360374B1B68002B62D1364B1B68002B23
:1028B0005ED02FE0344BDB68DB68FB60FB681833CD
:1028C0001846FEF739FCFB6804331846FEF734FC63
:1028D000FB68DA6A2D4B1B689A4203D9FB68DB6AF6
:1028E0002A4A1360FB68DA6A13469B0013449B0074
:1028F000274A1A44FB68043319461046FEF7BFFB0B
:10290000FB68DA6A234B1B68DB6A9A4202D3224BCC
:1029100001221A601C4B1B68002BCBD1FB68002BDB
:1029200001D000F055FB1D4B1B687B607B68002BC2
:1029300010D000F047F80346002B02D0164B0122BE
:102940001A607B68013B7B607B68002BF1D1134BE5
:1029500000221A60104B1B68002B09D00123BB60BA
:102960000F4B4FF080521A60BFF34F8FBFF36F8F42
:10297000FEF768FDBB6818461037BD4680BD00BF36
:10298000F0480024C848002488480024D048002487
:10299000F8430024F4430024DC480024D8480024F1
:1029A00004ED00E080B483B000AF054B1B687B6092
:1029B0007B6818460C37BD465DF8047B704700BF46
:1029C000CC48002480B586B000AF00237B614F4B1C
:1029D0001B68002B40F08F804D4B1B6801333B611F
:1029E0004B4A3B6913603B69002B20D1494B1B6864
:1029F0001B68002B0AD04FF0500383F31188BFF3FC
:102A00006F8FBFF34F8F3B6000BFFEE7414B1B68EA
:102A1000FB60414B1B683F4A13603F4AFB681360F1
:102A20003E4B1B6801333D4A136000F0D1FA3C4B2A
:102A30001B683A699A4249D3364B1B681B68002BC6
:102A400004D1374B4FF0FF321A603FE0314B1B6827
:102A5000DB68DB68BB60BB685B687B603A697B688E
:102A60009A4203D22E4A7B6813602FE0BB6804337E
:102A70001846FEF761FBBB689B6A002B04D0BB685D
:102A800018331846FEF758FBBB68DA6A254B1B68FB
:102A90009A4203D9BB68DB6A224A1360BB68DA6AD0
:102AA00013469B0013449B001F4A1A44BB6804331F
:102AB00019461046FEF7E3FABB68DA6A1B4B1B683F
:102AC000DB6A9A42B8D301237B61B5E7174B1B68D9
:102AD000DA6A154913469B0013449B000B441B689C
:102AE000012B01D901237B61114B1B68002B07D0FF
:102AF00001237B6104E00F4B1B6801330D4A136017
:102B00007B6918461837BD4680BD00BFF0480024D9
:102B1000CC4800248048002484480024E048002455
:102B2000E8480024D0480024F8430024F44300245B
:102B3000DC480024D848002480B485B000AF284B7E
:102B40001B68002B03D0274B01221A6041E0254B64
:102B500000221A60244B1B68FB6010E0FB68002B0E
:102B60000AD14FF0500383F31188BFF36F8FBFF387
:102B70004F8F7B6000BFFEE7FB68013BFB601B499A
:102B8000FA6813469B0013449B000B441B68002B00
:102B9000E4D0FA6813469B0013449B00134A134485
:102BA000BB60BB685B685A68BB685A60BB685A68A0
:102BB000BB6808339A4204D1BB685B685A68BB683B
:102BC0005A60BB685B68DB68094A1360064AFB68A9
:102BD000136000BF1437BD465DF8047B704700BF2B
:102BE000F0480024DC480024D0480024F8430024A6
:102BF000F443002480B584B000AF786039607B680E
:102C0000002B0AD14FF0500383F31188BFF36F8F6D
:102C1000BFF34F8FFB6000BFFEE7074B1B68183305
:102C200019467868FEF74FFA0121386800F07CFAFF
:102C300000BF1037BD4680BDF443002480B586B088
:102C400000AFF860B9607A60FB68002B0AD14FF0E2
:102C5000500383F31188BFF36F8FBFF34F8F7B61F6
:102C600000BFFEE70A4B1B6818331946F868FEF7E9
:102C700006FA7B68002B02D04FF0FF33BB60796807
:102C8000B86800F051FA00BF1837BD4680BD00BFDC
:102C9000F443002480B586B000AF78607B68DB68C1
:102CA000DB683B613B69002B0AD14FF0500383F393
:102CB0001188BFF36F8FBFF34F8FFB6000BFFEE73C
:102CC0003B6918331846FEF737FA1E4B1B68002B7A
:102CD0001DD13B6904331846FEF72EFA3B69DA6AC8
:102CE000194B1B689A4203D93B69DB6A164A136089
:102CF0003B69DA6A13469B0013449B00134A1A444B
:102D00003B69043319461046FEF7B9F905E03B6903
:102D1000183319460E48FEF7B2F93B69DA6A0D4BD3
:102D20001B68DB6A9A4205D901237B610A4B0122A9
:102D30001A6001E000237B617B6918461837BD46A5
:102D400080BD00BFF0480024D0480024F843002490
:102D500088480024F4430024DC48002480B483B075
:102D600000AF7860064B1A687B681A60054B1A68DA
:102D70007B685A6000BF0C37BD465DF8047B704726
:102D8000E0480024CC48002480B588B000AF7860CB
:102D900039607B68002B0AD14FF0500383F3118810
:102DA000BFF36F8FBFF34F8F3B6100BFFEE73B6800
:102DB000002B0AD14FF0500383F31188BFF36F8FBC
:102DC000BFF34F8FFB6000BFFEE7FEF70BFB1D4B11
:102DD0001B68BB617B685B68BA69D31A7B613B681F
:102DE0001B68B3F1FF3F02D10023FB6123E07B6846
:102DF0001A68154B1B689A4207D07B685B68BA69F2
:102E00009A4202D30123FB6115E03B681B687A6993
:102E10009A420BD23B681A687B69D21A3B681A60E7
:102E20007868FFF79BFF0023FB6104E03B6800220A
:102E30001A600123FB61FEF705FBFB69184620378A
:102E4000BD4680BDCC480024E048002480B400AFDB
:102E5000034B01221A6000BFBD465DF8047B70473A
:102E6000DC48002480B582B000AF786000F052F8F2
:102E7000064B1B68012BF9D9054B4FF080521A60A5
:102E8000BFF34F8FBFF36F8FF0E700BFF84300240D
:102E900004ED00E080B582B000AF00237B600CE061
:102EA0007A6813469B0013449B00124A1344184649
:102EB000FEF7B8F87B6801337B607B68372BEFD96E
:102EC0000D48FEF7AFF80D48FEF7ACF80C48FEF7DA
:102ED000A9F80C48FEF7A6F80B48FEF7A3F80B4B31
:102EE000054A1A600A4B054A1A6000BF0837BD46FA
:102EF00080BD00BFF8430024584800246C480024DB
:102F0000884800249C480024B448002480480024B9
:102F10008448002480B582B000AF19E0FEF762FA61
:102F2000104BDB68DB687B607B6804331846FEF778
:102F300003F90D4B1B68013B0B4A13600B4B1B68DD
:102F4000013B0A4A1360FEF77DFA786800F010F83A
:102F5000064B1B68002BE1D100BF00BF0837BD4600
:102F600080BD00BF9C480024C8480024B04800240D
:102F700080B584B000AF78607B6893F85930002B3F
:102F800008D17B681B6B1846FEF71AFC7868FEF7C1
:102F900017FC18E07B6893F85930012B03D178684F
:102FA000FEF70EFC0FE07B6893F85930022B0AD035
:102FB0004FF0500383F31188BFF36F8FBFF34F8F30
:102FC000FB6000BFFEE700BF1037BD4680BD0000BC
:102FD00080B483B000AF0C4B1B681B68002B04D17E
:102FE0000A4B4FF0FF321A6008E0074B1B68DB68A2
:102FF000DB687B607B685B68044A136000BF0C374A
:10300000BD465DF8047B704780480024E8480024F2
:1030100080B483B000AF0B4B1B68002B02D101239F
:103020007B6008E0084B1B68002B02D102237B6009
:1030300001E000237B607B6818460C37BD465DF8D5
:10304000047B7047D4480024F048002480B586B043
:1030500000AF78607B683B6100237B617B68002B5D
:1030600056D02E4B1B683A699A420AD04FF0500353
:1030700083F31188BFF36F8FBFF34F8FFB6000BFE7
:10308000FEE73B691B6D002B0AD14FF0500383F321
:103090001188BFF36F8FBFF34F8FBB6000BFFEE798
:1030A0003B691B6D5A1E3B691A653B69DA6A3B69CD
:1030B000DB6C9A422CD03B691B6D002B28D13B69FD
:1030C00004331846FEF738F83B69DA6C3B69DA627C
:1030D0003B69DB6AC3F138023B699A613B69DA6A92
:1030E0000F4B1B689A4203D93B69DB6A0C4A136099
:1030F0003B69DA6A13469B0013449B00094A1A4451
:103100003B69043319461046FDF7B9FF01237B6183
:103110007B6918461837BD4680BD00BFF4430024C4
:10312000D0480024F843002480B584B000AF786014
:103130003960214B1B68FB60204B1B680433184629
:10314000FDF7FAFF7B68B3F1FF3F0AD13B68002B24
:1031500007D01A4B1B68043319461948FDF78FFF37
:1031600026E0FA687B681344BB60144B1B68BA689E
:103170005A60BA68FB689A4209D2124B1A680F4B20
:103180001B68043319461046FDF79DFF10E00E4BF7
:103190001A680A4B1B68043319461046FDF793FF63
:1031A0000A4B1B68BA689A4202D2084ABB6813608D
:1031B00000BF1037BD4680BDCC480024F443002436
:1031C000B44800248448002480480024E8480024AF
:1031D00080B58AB004AF00237B6100F007FB1C4B75
:1031E0001B68002B21D00023FB600023BB603A1D2D
:1031F00007F1080107F10C031846FDF7F9FE79689D
:10320000BB68FA68029201930223009300230A46E6
:1032100010491148FFF7DEF80346104A13600F4BC0
:103220001B68002B01D001237B617B69002B0AD135
:103230004FF0500383F31188BFF36F8FBFF34F8FAD
:103240003B6100BFFEE77B6918461837BD4680BD6D
:1032500024490024CC800008953300082849002424
:1032600080B58AB000AFF860B9607A603B60002337
:103270007B62FB68002B0AD14FF0500383F3118867
:10328000BFF36F8FBFF34F8F3B6200BFFEE71A4B58
:103290001B68002B2AD0BB683B617B687B61FB68A5
:1032A000BB61BB68052B18DCFFF7B2FE0346022B9F
:1032B00009D1114B186807F1100100233A6BFEF792
:1032C000A1FC786212E00C4B186807F11001002392
:1032D0000022FEF797FC786208E0074B186807F1B8
:1032E000100100233A68FEF78BFD78627B6A18466E
:1032F0002837BD4680BD00BF2449002480B588B072
:1033000002AF78603960224B1B68DB68DB687B6149
:103310007B6904331846FDF70FFF7B6993F828306B
:1033200003F00403002B22D07B699A697B68D118D3
:103330007B683A68786900F0D1F80346002B1FD00B
:103340000023009300237A6800217869FFF788FF43
:1033500038613B69002B13D14FF0500383F3118880
:10336000BFF36F8FBFF34F8FFB6000BFFEE77B693A
:1033700093F8283023F00103DAB27B6983F8282020
:103380007B691B6A7869984700BF1837BD4680BDC6
:103390001C49002480B584B000AF786007F10803B1
:1033A000184600F057F8F860BB681946F86800F056
:1033B00003F800F0D5F8F1E780B584B000AF78608D
:1033C0003960FFF743FA07F10803184600F066F882
:1033D000F860BB68002B30D13B68002B0AD17A68BB
:1033E000FB689A4206D8FFF73FFAF9687868FFF75A
:1033F00085FF24E03B68002B08D0134B1B681B683B
:10340000002B01D1012300E000233B600F4B186823
:103410007A68FB68D31A3A681946FEF7A7FFFFF7E8
:1034200023FA0346002B0AD1094B4FF080521A6051
:10343000BFF34F8FBFF36F8F01E0FFF715FA00BFA7
:103440001037BD4680BD00BF204900242449002418
:1034500004ED00E080B485B000AF78600E4B1B68CF
:103460001B68002B01D1012200E000227B681A605A
:103470007B681B68002B05D1074B1B68DB681B684A
:10348000FB6001E00023FB60FB6818461437BD4673
:103490005DF8047B704700BF1C49002480B584B0F0
:1034A00000AF7860FFF77EFAF8600B4B1B68FA6894
:1034B0009A4205D200F036F97B6801221A6002E0D8
:1034C0007B6800221A60044AFB681360FB68184698
:1034D0001037BD4680BD00BF2C49002480B586B0A2
:1034E00000AFF860B9607A603B6000237B61FB68E5
:1034F000BA685A60FB68FA681A61BA687B689A42CF
:1035000012D87A683B68D21AFB689B699A4202D348
:1035100001237B611BE0104B1A68FB6804331946DA
:103520001046FDF7D0FD12E07A683B689A4206D259
:10353000BA683B689A4202D301237B6107E0074BDC
:103540001A68FB68043319461046FDF7BCFD7B6919
:1035500018461837BD4680BD204900241C49002468
:1035600080B58EB002AFCAE07B68002B18DA3B1D35
:103570000433FB62FB6A002B0AD14FF0500383F344
:103580001188BFF36F8FBFF34F8FFB6100BFFEE762
:10359000FB6A1B68FA6A5068FA6A92681146984793
:1035A0007B68002BC0F2AB80FB68BB62BB6A5B69C7
:1035B000002B04D0BB6A04331846FDF7BDFD3B4623
:1035C0001846FFF76BFF78627B68092B00F2968044
:1035D00001A252F823F000BF0136000801360008AE
:1035E000013600087536000889360008D336000811
:1035F00001360008013600087536000889360008D3
:10360000BB6A93F8283043F00103DAB2BB6A83F84F
:103610002820BA68BB6A9B69D118BB687A6AB86A05
:10362000FFF75CFF0346002B69D0BB6A1B6AB86AD0
:103630009847BB6A93F8283003F00403002B5ED050
:10364000BA68BB6A9B691A440023009300230021D7
:10365000B86AFFF705FE38623B6A002B4FD14FF086
:10366000500383F31188BFF36F8FBFF34F8FBB619C
:1036700000BFFEE7BB6A93F8283023F00103DAB2FB
:10368000BB6A83F828203AE0BB6A93F8283043F0FD
:103690000103DAB2BB6A83F82820BA68BB6A9A6170
:1036A000BB6A9B69002B0AD14FF0500383F311884A
:1036B000BFF36F8FBFF34F8F7B6100BFFEE7BB6A25
:1036C0009A697B6AD1187B6A7A6AB86AFFF706FF43
:1036D00015E0BB6A93F8283003F00203002B03D1F6
:1036E000B86AFEF76DF80AE0BB6A93F8283023F059
:1036F0000103DAB2BB6A83F8282000E000BF084B60
:103700001B68391D00221846FEF716FC0346002BE5
:103710007FF42AAF00BF00BF3037BD4680BD00BF79
:103720002449002480B588B002AF48E02D4B1B68C7
:10373000DB681B683B612B4B1B68DB68DB68FB604D
:10374000FB6804331846FDF7F7FCFB681B6AF86852
:103750009847FB6893F8283003F00403002B2ED021
:10376000FB689B693A691344BB60BA683B699A423B
:103770000ED9FB68BA685A60FB68FA681A61194B7F
:103780001A68FB68043319461046FDF79CFC16E0E6
:103790000023009300233A690021F868FFF760FDD9
:1037A00078607B68002B0AD14FF0500383F31188B7
:1037B000BFF36F8FBFF34F8F3B6000BFFEE7094B36
:1037C0001B681B68002BB1D1064B1B687B61064B45
:1037D0001B68044A1360044A7B69136000BF1837F2
:1037E000BD4680BD1C4900242049002480B582B01C
:1037F00002AFFDF7F7FD154B1B68002B20D11448D5
:10380000FDF710FC1348FDF70DFC134B104A1A602E
:10381000124B104A1A6000230093114B114A1021D9
:103820000A20FEF753F90346084A1360074B1B684A
:10383000002B05D0054B1B680B491846FEF76CFDA5
:10384000FDF700FE00BFBD4680BD00BF2449002437
:10385000F4480024084900241C490024204900247D
:10386000D049002430490024D480000880B485B0B9
:1038700000AF78607B6803F00703FB600B4BDB68ED
:10388000BB60BA684FF6FF031340BB60FB681A02C7
:10389000BB681A43064B1343BB60044ABB68D36042
:1038A00000BF1437BD465DF8047B704700ED00E0B3
:1038B0000000FA0580B400AF044BDB681B0A03F07C
:1038C00007031846BD465DF8047B704700ED00E035
:1038D00080B483B000AF03463960FB80B7F906308F
:1038E000002B0ADB3B68DAB20C49B7F9063012014B
:1038F000D2B20B4483F800230AE03B68DAB20849ED
:10390000FB8803F00F03043B1201D2B20B441A767A
:1039100000BF0C37BD465DF8047B704700E100E056
:1039200000ED00E080B489B000AFF860B9607A6063
:10393000FB6803F00703FB61FB69C3F10703042B7A
:1039400028BF0423BB61FB690433062B02D9FB6942
:10395000033B00E000237B614FF0FF32BB6902FABA
:1039600003F3DA43BB681A407B699A404FF0FF319A
:103970007B6901FA03F3D9437B680B401343184674
:103980002437BD465DF8047B7047000080B582B0E7
:1039900000AF78607B68013BB3F1807F01D30123E6
:1039A0000FE00A4A7B68013B53600F214FF0FF3064
:1039B000FFF78EFF054B00229A60044B07221A6026
:1039C000002318460837BD4680BD00BF10E000E068
:1039D00080B582B000AF78607868FFF747FF00BF1E
:1039E0000837BD4680BD80B586B000AF0346B960DC
:1039F0007A60FB81FFF75EFF78617A68B968786961
:103A0000FFF790FF0246B7F90E3011461846FFF750
:103A10005FFF00BF1837BD4680BD80B582B000AFE4
:103A200078607868FFF7B2FF034618460837BD464E
:103A300080BD000080B400AFBFF35F8F00BF074BB5
:103A40005B6A064A23F480335362054B00225A60B6
:103A500000BFBD465DF8047B704700BF00ED00E08D
:103A600090ED00E080B483B000AF78600B4A7B68D3
:103A700043F0010353600A4B5B6A094A43F4803305
:103A80005362BFF34F8F00BFBFF36F8F00BF00BF04
:103A90000C37BD465DF8047B704700BF90ED00E039
:103AA00000ED00E080B483B000AF78607B685A78A6
:103AB0001D4B9A607B681B78002B29D01A4A7B68C3
:103AC0005B68D3607B681B7B1A077B68DB7A1B060D
:103AD0001A437B689B7ADB041A437B685B7B9B04FD
:103AE0001A437B689B7B5B041A437B68DB7B1B046C
:103AF0001A437B685B7A1B021A437B681B7A5B0064
:103B000013437A6812781146074A0B43136105E0A4
:103B1000054B0022DA60044B00221A6100BF0C370B
:103B2000BD465DF8047B704790ED00E080B489B03D
:103B300000AF786039600023FB61864B7B618CE1CC
:103B40003B681A680121FB6901FA03F313403B61EA
:103B50003B69002B00F07E813B685B6803F0030348
:103B6000012B05D03B685B6803F00303022B30D1C7
:103B70007B689B68BB61FB695B00032202FA03F36D
:103B8000DB43BA691340BB613B68DA68FB695B00E1
:103B900002FA03F3BA691343BB617B68BA699A609E
:103BA0007B685B68BB610122FB6902FA03F3DB43BC
:103BB000BA691340BB613B685B681B0903F00102F3
:103BC000FB6902FA03F3BA691343BB617B68BA6904
:103BD0005A603B685B6803F00303032B17D07B68D4
:103BE000DB68BB61FB695B00032202FA03F3DB4382
:103BF000BA691340BB613B689A68FB695B0002FAD3
:103C000003F3BA691343BB617B68BA69DA603B6846
:103C10005B6803F00303022B23D1FB69DA087B689E
:103C2000083253F82230BB61FB6903F007039B00A5
:103C30000F2202FA03F3DB43BA691340BB613B680E
:103C40001A69FB6903F007039B0002FA03F3BA69E0
:103C50001343BB61FB69DA087B680832B96943F832
:103C600022107B681B68BB61FB695B00032202FAC0
:103C700003F3DB43BA691340BB613B685B6803F045
:103C80000302FB695B0002FA03F3BA691343BB61E9
:103C90007B68BA691A603B685B6803F44033002BA9
:103CA00000F0D8802C4BD3F8F4302B4A43F00203B9
:103CB000C2F8F430284BD3F8F43003F00203FB6071
:103CC000FB68264AFB699B08023352F82330BB612C
:103CD000FB6903F003039B000F2202FA03F3DB43AB
:103CE000BA691340BB617B681D4A93424AD07B6826
:103CF0001C4A93422BD07B681B4A934225D07B6899
:103D00001A4A93421FD07B68194A934219D07B68A4
:103D1000184A934213D07B68174A93420DD07B68B0
:103D2000164A934207D07B68154A934201D1092372
:103D300029E00A2327E0072325E0062323E00523C3
:103D400021E004231FE003231DE002231BE00123E5
:103D500019E000BF800000580044025800040058D9
:103D6000000002580004025800080258000C0258D3
:103D7000001002580014025800180258001C025883
:103D8000002402580023FA6902F0030292009340D3
:103D9000BA691343BB613849FB699B080233BA69AE
:103DA00041F823204FF0B0431B68BB613B69DB4304
:103DB000BA691340BB613B685B6803F48013002B56
:103DC00003D0BA693B691343BB614FF0B042BB6992
:103DD00013604FF0B0435B68BB613B69DB43BA697A
:103DE0001340BB613B685B6803F40013002B03D0F6
:103DF000BA693B691343BB614FF0B042BB69536082
:103E00007B695B68BB613B69DB43BA691340BB619B
:103E10003B685B6803F40033002B03D0BA693B694D
:103E20001343BB617B69BA695A607B691B68BB61DC
:103E30003B69DB43BA691340BB613B685B6803F4D1
:103E40008033002B03D0BA693B691343BB617B69A4
:103E5000BA691A60FB690133FB613B681A68FB6948
:103E600022FA03F3002B7FF46BAE00BF00BF2437B0
:103E7000BD465DF8047B70470004005880B483B0F1
:103E800000AF78600B467B8013467B707B78002BFD
:103E900003D07A887B689A6103E07B881A047B6888
:103EA0009A6100BF0C37BD465DF8047B704780B453
:103EB00085B000AF78600B467B807B685B69FB60F8
:103EC0007A88FB6813401A04FB68D9437B880B404F
:103ED0001A437B689A6100BF1437BD465DF8047BC6
:103EE0007047000080B584B000AF7860194BDB6884
:103EF00003F00403042B0AD0164BDB6803F007031E
:103F00007A689A4201D001231FE000231DE0114B83
:103F1000DB6823F007020F497B681343CB6004F092
:103F200031F8F86009E004F02DF80246FB68D31A76
:103F3000B3F57A7F01D9012307E0064B5B6803F4F0
:103F40000053B3F5005FEED1002318461037BD468D
:103F500080BD00BF004802582DE9B04FC6B000AF89
:103F6000C7F80401002387F81731002387F81631BA
:103F7000D7F80431D3E9002302F00064002554EAA5
:103F8000050349D0D7F804315B6EB3F5401F2FD03D
:103F9000B3F5401F28D8B3F5001F1AD0B3F5001FA2
:103FA00022D8002B03D0B3F5801F07D01CE0AB4B09
:103FB000DB6AAA4A43F40033D3621AE0D7F804312B
:103FC00008330221184601F025FC034687F8173113
:103FD0000FE0D7F8043128330221184601F0CCFC59
:103FE000034687F8173104E0012387F8173100E012
:103FF00000BF97F81731002B0AD1984B1B6D23F4A3
:104000004011D7F804315B6E944A0B43136503E00B
:1040100097F8173187F81631D7F80431D3E9002320
:1040200002F480784FF0000958EA090347D0D7F826
:1040300004319B6D042B2AD801A252F823F000BF53
:104040005540000863400008794000089740000888
:1040500097400008814BDB6A804A43F40033D36207
:104060001AE0D7F8043108330021184601F0D2FBDA
:10407000034687F817310FE0D7F8043128330021C1
:10408000184601F079FC034687F8173104E0012354
:1040900087F8173100E000BF97F81731002B0AD1DD
:1040A0006E4B1B6D23F00701D7F804319B6D6B4AF3
:1040B0000B43136503E097F8173187F81631D7F8EB
:1040C0000431D3E9002302F4806A4FF0000B5AEA6E
:1040D0000B035BD0D7F80431D3F8A430B3F5200F2D
:1040E0003BD0B3F5200F34D8B3F5000F37D0B3F57C
:1040F000000F2ED8B3F5C00F33D0B3F5C00F28D8BA
:10410000B3F5800F1AD0B3F5800F22D8002B03D05F
:10411000B3F5001F07D01CE0504BDB6A4F4A43F455
:104120000033D3621EE0D7F804310833002118466B
:1041300001F070FB034687F8173113E0D7F804311C
:1041400028330021184601F017FC034687F8173181
:1041500008E0012387F8173104E000BF02E000BF48
:1041600000E000BF97F81731002B0BD13B4B9B6D44
:1041700023F46001D7F80431D3F8A430374A0B4355
:10418000936503E097F8173187F81631D7F80431B3
:10419000D3E9002302F40063C7F8F8300023C7F81E
:1041A000FC30D7E93E120B4613435DD0D7F80431FB
:1041B000D3F8A830B3F1A06F3BD0B3F1A06F34D8DF
:1041C000B3F1806F37D0B3F1806F2ED8B3F1407F59
:1041D00033D0B3F1407F28D8B3F1007F1AD0B3F1C8
:1041E000007F22D8002B03D0B3F1807F07D01CE0E2
:1041F0001A4BDB6A194A43F40033D3621EE0D7F846
:10420000043108330021184601F004FB034687F807
:10421000173113E0D7F8043128330021184601F094
:10422000ABFB034687F8173108E0012387F8173105
:1042300004E000BF02E000BF00E000BF97F81731C4
:10424000002B0DD1054B9B6D23F0E061D7F80431B5
:10425000D3F8A830014A0B43936505E000440258A7
:1042600097F8173187F81631D7F80431D3E90023CE
:1042700002F00073C7F8F0300023C7F8F430D7E934
:104280003C120B4613433AD0D7F80431DB6C302B89
:104290001FD0302B19D8202B0CD0202B15D8002B59
:1042A00019D0102B11D1AA4BDB6AA94A43F4003371
:1042B000D36211E0D7F8043108330221184601F027
:1042C000A9FA034687F8173106E0012387F817316A
:1042D00002E000BF00E000BF97F81731002B0AD1C1
:1042E0009B4BDB6C23F03001D7F80431DB6C984A30
:1042F0000B43D36403E097F8173187F81631D7F8EA
:104300000431D3E9002302F48053C7F8E8300023D6
:10431000C7F8EC30D7E93A120B46134351D0D7F81F
:104320000431DB6DB3F5804F35D0B3F5804F2ED817
:10433000B3F5405F31D0B3F5405F28D8B3F5005FE7
:104340001AD0B3F5005F22D8002B03D0B3F5805FFD
:1043500007D01CE07E4BDB6A7D4A43F40033D36216
:104360001CE0D7F8043108330021184601F052FA56
:10437000034687F8173111E0D7F8043128330021BC
:10438000184601F0F9FA034687F8173106E00123D1
:1043900087F8173102E000BF00E000BF97F817313F
:1043A000002B0AD16A4B1B6D23F4E041D7F804318E
:1043B000DB6D674A0B43136503E097F8173187F805
:1043C0001631D7F80431D3E9002302F40053C7F8BB
:1043D000E0300023C7F8E430D7E938120B46134326
:1043E00053D0D7F804311B6EB3F5A02F33D0B3F5FB
:1043F000A02F2CD8B3F5802F2FD0B3F5802F26D83F
:10440000B3F5403F2BD0B3F5403F20D8B3F5003F84
:1044100012D0B3F5003F1AD8002B22D0B3F5803F5D
:1044200015D1D7F8043108330121184601F0F2F90B
:10443000034687F8173115E0D7F8043128330121F6
:10444000184601F099FA034687F817310AE001236C
:1044500087F8173106E000BF04E000BF02E000BFAC
:1044600000E000BF97F81731002B0AD1384B1B6DC5
:1044700023F4E021D7F804311B6E354A0B43136552
:1044800003E097F8173187F81631D7F80431D3E9EC
:10449000002302F48043C7F8D8300023C7F8DC308B
:1044A000D7E936120B46134358D0D7F80431D3F866
:1044B000AC30B3F1A04F33D0B3F1A04F2CD8B3F14F
:1044C000804F2FD0B3F1804F26D8B3F1405F2BD06F
:1044D000B3F1405F20D8B3F1005F12D0B3F1005FB9
:1044E0001AD8002B22D0B3F1805F15D1D7F8043150
:1044F00008330121184601F08DF9034687F817317A
:1045000015E0D7F8043128330121184601F034FAB8
:10451000034687F817310AE0012387F8173106E0D0
:1045200000BF04E000BF02E000BF00E000BF97F85A
:104530001731002B0ED1064B9B6D23F0E041D7F8CD
:104540000431D3F8AC30024A0B43936506E000BF58
:104550000044025897F8173187F81631D7F804311C
:10456000D3E9002302F40043C7F8D0300023C7F892
:10457000D430D7E934120B46134337D0D7F804317F
:10458000DB6EB3F1005F0ED0B3F1005F16D8002BE5
:1045900018D0B3F1805F11D1C44BDB6AC34A43F436
:1045A0000033D3620FE0D7F80431083301211846F5
:1045B00001F030F9034687F8173104E0012387F84A
:1045C000173100E000BF97F81731002B0AD1B74B25
:1045D0001B6D23F04051D7F80431DB6EB34A0B4317
:1045E000136503E097F8173187F81631D7F80431CF
:1045F000D3E9002302F08073C7F8C8300023C7F85E
:10460000CC30D7E932120B46134339D0D7F80431F6
:104610009B6C032B1CD801A252F823F059460008CA
:104620002D4600083B460008594600089F4BDB6AB0
:104630009E4A43F40033D3620FE0D7F804310833C5
:104640000221184601F0E6F8034687F8173104E026
:10465000012387F8173100E000BF97F81731002BCE
:104660000AD1924BDB6C23F00301D7F804319B6C29
:104670008E4A0B43D36403E097F8173187F816315D
:10468000D7F80431D3E9002302F48003C7F8C0301F
:104690000023C7F8C430D7E930120B46134300F0AB
:1046A0009980834B1B68824A43F48073136003F044
:1046B00069FCC7F810010BE003F064FC0246D7F870
:1046C0001031D31A642B03D9032387F8173105E07F
:1046D000774B1B6803F48073002BEDD097F81731EC
:1046E000002B73D1714B1A6FD7F80431D3F8B03067
:1046F000534003F44073002B15D06C4B1B6F23F415
:104700004073C7F80C31694B1B6F684A43F4803320
:104710001367664B1B6F654A23F480331367634A44
:10472000D7F80C311367D7F80431D3F8B030B3F5AC
:10473000807F18D103F026FCC7F810010DE003F0CC
:1047400021FC0246D7F81031D21A41F288339A423E
:1047500003D9032387F8173105E0544B1B6F03F08F
:104760000203002BEBD097F81731002B29D1D7F893
:104770000431D3F8B03003F44073B3F5407F0ED169
:104780004A4B1B6923F47C51D7F80431D3F8B0307D
:104790001A09484B1340454A0B43136105E0434B4C
:1047A0001B69424A23F47C531361404B196FD7F8BD
:1047B0000431D3F8B030C3F30B033C4A0B43136707
:1047C00008E097F8173187F8163103E097F81731AA
:1047D00087F81631D7F80431D3E9002302F001033A
:1047E000C7F8B8300023C7F8BC30D7E92E120B4603
:1047F000134300F08F80D7F804319B6F282B71D8BA
:1048000001A252F823F000BFED480008E548000877
:10481000E5480008E5480008E5480008E5480008C4
:10482000E5480008E5480008B9480008E5480008E0
:10483000E5480008E5480008E5480008E5480008A4
:10484000E5480008E5480008CF480008E5480008AA
:10485000E5480008E5480008E5480008E548000884
:10486000E5480008E5480008ED480008E54800086C
:10487000E5480008E5480008E5480008E548000864
:10488000E5480008E5480008ED480008E54800084C
:10489000E5480008E5480008E5480008E548000844
:1048A000E5480008E5480008ED48000800440258C3
:1048B00000480258CFFFFF00D7F804310833012128
:1048C000184600F0A7FF034687F817310FE0D7F826
:1048D000043128330121184601F04EF8034687F8C9
:1048E000173104E0012387F8173100E000BF97F883
:1048F0001731002B0AD1BF4B5B6D23F03801D7F87D
:1049000004319B6FBB4A0B43536503E097F81731A3
:1049100087F81631D7F80431D3E9002302F00203F7
:10492000C7F8B0300023C7F8B430D7E92C120B46D3
:10493000134341D0D7F804315B6F052B24D801A273
:1049400052F823F0914900085D49000873490008B6
:10495000914900089149000891490008D7F80431AD
:1049600008330121184600F055FF034687F8173138
:104970000FE0D7F8043128330121184600F0FCFF7E
:10498000034687F8173104E0012387F8173100E068
:1049900000BF97F81731002B0AD1964B5B6D23F0BF
:1049A0000701D7F804315B6F924A0B43536503E06C
:1049B00097F8173187F81631D7F80431D3E9002377
:1049C00002F00403C7F8A8300023C7F8AC30D7E9D9
:1049D0002A120B46134344D0D7F80431D3F8903051
:1049E000052B25D801A252F823F000BF394A000850
:1049F000054A00081B4A0008394A0008394A0008DD
:104A0000394A0008D7F8043108330121184600F06C
:104A100001FF034687F817310FE0D7F80431283338
:104A20000121184600F0A8FF034687F8173104E07B
:104A3000012387F8173100E000BF97F81731002BEA
:104A40000BD16C4B9B6D23F00701D7F80431D3F8E1
:104A50009030684A0B43936503E097F8173187F865
:104A60001631D7F80431D3E9002302F02003C7F848
:104A7000A0300023C7F8A430D7E928120B4613430F
:104A800055D0D7F80431D3F88C30B3F1A04F33D0E0
:104A9000B3F1A04F2CD8B3F1804F2FD0B3F1804F9A
:104AA00026D8B3F1405F2BD0B3F1405F20D8B3F1EB
:104AB000005F12D0B3F1005F1AD8002B22D0B3F1FF
:104AC000805F15D1D7F8043108330021184600F073
:104AD000A1FE034687F8173115E0D7F804312833D3
:104AE0000221184600F048FF034687F817310AE014
:104AF000012387F8173106E000BF04E000BF02E0A1
:104B000000BF00E000BF97F81731002B0BD1394BE5
:104B10005B6D23F0E041D7F80431D3F88C30354A8F
:104B20000B43536503E097F8173187F81631D7F830
:104B30000431D3E9002302F04003C7F89830002382
:104B4000C7F89C30D7E926120B46134358D0D7F844
:104B50000431D3F89830B3F5A05F33D0B3F5A05F3C
:104B60002CD8B3F5805F2FD0B3F5805F26D8B3F58E
:104B7000406F2BD0B3F5406F20D8B3F5006F12D043
:104B8000B3F5006F1AD8002B22D0B3F5806F15D182
:104B9000D7F8043108330021184600F03BFE0346E5
:104BA00087F8173115E0D7F8043128330221184669
:104BB00000F0E2FE034687F817310AE0012387F888
:104BC000173106E000BF04E000BF02E000BF00E0D4
:104BD00000BF97F81731002B0ED1064B9B6D23F4C5
:104BE000E051D7F80431D3F89830024A0B4393656B
:104BF00006E000BF0044025897F8173187F81631D5
:104C0000D7F80431D3E9002302F08003C7F89030CD
:104C10000023C7F89430D7E924120B46134355D02C
:104C2000D7F80431D3F89C30B3F5204F33D0B3F527
:104C3000204F2CD8B3F5004F2FD0B3F5004F26D816
:104C4000B3F5C04F2BD0B3F5C04F20D8B3F5804F8C
:104C500012D0B3F5804F1AD8002B22D0B3F5005FE5
:104C600015D1D7F8043108330021184600F0D2FDE1
:104C7000034687F8173115E0D7F8043128330221AD
:104C8000184600F079FE034687F817310AE0012341
:104C900087F8173106E000BF04E000BF02E000BF64
:104CA00000E000BF97F81731002B0BD1A04B9B6D94
:104CB00023F46041D7F80431D3F89C309C4A0B436D
:104CC000936503E097F8173187F81631D7F8043168
:104CD000D3E9002302F00803C7F888300023C7F89F
:104CE0008C30D7E922120B4613431ED0D7F804317B
:104CF000D3F88030B3F5805F0CD1D7F80431283376
:104D00000221184600F038FE0346002B02D0012392
:104D100087F81631864B5B6D23F44051D7F8043188
:104D2000D3F88030824A0B435365D7F80431D3E976
:104D3000002302F01003C7F880300023C7F8843046
:104D4000D7E920120B4613431ED0D7F80431D3F80D
:104D50009430B3F5807F0CD1D7F804312833022189
:104D6000184600F009FE0346002B02D0012387F805
:104D700016316F4B9B6D23F44071D7F80431D3F893
:104D800094306B4A0B439365D7F80431D3E9002381
:104D900002F40023BB670023FB67D7E91E120B4612
:104DA00013433ED0D7F80431D3F8A030B3F5003F19
:104DB00022D0B3F5003F1BD8002B03D0B3F5803FC2
:104DC0000BD015E0D7F8043108330021184600F065
:104DD00021FD034687F817310FE0D7F80431283357
:104DE0000221184600F0C8FD034687F8173104E099
:104DF000012387F8173100E000BF97F81731002B27
:104E00000BD14B4B9B6D23F44031D7F80431D3F8D1
:104E1000A030474A0B43936503E097F8173187F8B2
:104E20001631D7F80431D3E9002302F480233B671D
:104E300000237B67D7E91C120B4613433BD0D7F8FE
:104E40000431D3F88430B3F5401F1FD0B3F5401FB1
:104E500018D8B3F5801F03D0B3F5001F07D011E0B9
:104E6000334BDB6A324A43F40033D3620FE0D7F8A6
:104E7000043128330121184600F07EFD034687F8EF
:104E8000173104E0012387F8173100E000BF97F8DD
:104E90001731002B0BD1264B5B6D23F44011D7F853
:104EA0000431D3F88430224A0B43536503E097F86A
:104EB000173187F81631D7F80431D3E9002302F40B
:104EC0008033BB660023FB66D7E91A120B461343F7
:104ED00034D0D7F804311B6D002B03D0B3F5803FDD
:104EE00007D011E0124BDB6A114A43F40033D3625E
:104EF0000EE0D7F8043108330221184600F08AFC8E
:104F0000034687F8173103E0012387F8173100BF04
:104F100097F81731002B0DD1054BDB6C23F4803152
:104F2000D7F804311B6D024A0B43D36406E000BF7F
:104F30000044025897F8173187F81631D7F8043132
:104F4000D3E9002302F000533B6600237B66D7E9D8
:104F500018120B4613430CD0D7F804312833022122
:104F6000184600F009FD0346002B02D0012387F804
:104F70001631D7F80431D3E9002302F40033BB65BE
:104F80000023FB65D7E916120B46134336D0D7F83A
:104F90000431DB6FB3F5407F18D0B3F5407F11D8F3
:104FA000B3F5007F14D0B3F5007F0BD8002B11D0E0
:104FB000B3F5807F06D1B74BDB6AB64A43F40033C2
:104FC000D36208E0012387F8173104E000BF02E054
:104FD00000BF00E000BF97F81731002B0AD1AD4B9E
:104FE0005B6D23F44071D7F80431DB6FA94A0B43A2
:104FF000536503E097F8173187F81631D7F8043175
:10500000D3E9002302F480133B6500237B65D7E9D5
:1050100014120B46134309D09E4B1B6D23F0004125
:10502000D7F804311B6F9B4A0B431365D7F8043143
:10503000D3E9002302F40013BB640023FB64D7E927
:1050400012120B46134309D0924B1B6D23F0807153
:10505000D7F804319B6E8F4A0B431365D7F80431A0
:10506000D3E9002302F080433B6400237B64D7E94B
:1050700010120B4613430ED0864B1B69854A23F44E
:1050800000431361834B1969D7F80431D3F8B43066
:10509000804A0B431361D7F80431D3E9002302F0AF
:1050A0000043BB630023FB63D7E90E120B46134397
:1050B00009D0784BDB6C23F04051D7F804315B6D9D
:1050C000744A0B43D364D7F80431D3E9002302F4C4
:1050D00000033B6300237B63D7E90C120B461343A9
:1050E0000AD06C4B5B6D23F44001D7F80431D3F840
:1050F0008830684A0B435365D7F80431D3E900235D
:105100000021B96203F00103FB62D7E90A120B46E2
:10511000134311D0D7F8043108330021184600F0AA
:1051200079FB034687F8173197F81731002B03D026
:1051300097F8173187F81631D7F80431D3E90023EF
:105140000021396203F002037B62D7E908120B46A3
:10515000134311D0D7F8043108330121184600F069
:1051600059FB034687F8173197F81731002B03D006
:1051700097F8173187F81631D7F80431D3E90023AF
:105180000021B96103F00403FB61D7E906120B4665
:10519000134311D0D7F8043108330221184600F028
:1051A00039FB034687F8173197F81731002B03D0E6
:1051B00097F8173187F81631D7F80431D3E900236F
:1051C0000021396103F008037B61D7E904120B4623
:1051D000134311D0D7F8043128330021184600F0CA
:1051E000CBFB034687F8173197F81731002B03D014
:1051F00097F8173187F81631D7F80431D3E900232F
:105200000021B96003F01003FB60D7E902120B46DE
:10521000134311D0D7F8043128330121184600F088
:10522000ABFB034687F8173197F81731002B03D0F3
:1052300097F8173187F81631D7F80431D3E90023EE
:105240000021396003F020037B60D7E900120B4690
:10525000134311D0D7F8043128330221184600F047
:105260008BFB034687F8173197F81731002B03D0D3
:1052700097F8173187F8163197F81631002B01D1BE
:10528000002300E00123184607F58C77BD46BDE8F2
:10529000B08F00BF0044025880B500AF01F028FB7A
:1052A0000246064B1B6A1B0903F007030449CB5C4B
:1052B00003F01F0322FA03F3184680BD004402588E
:1052C0004881000880B489B000AF7860A14B9B6A28
:1052D00003F00303BB619F4B9B6A1B0B03F03F036F
:1052E0007B619C4BDB6A1B0903F001033B61994B1B
:1052F000DB6BDB08C3F30C033A6902FB03F307EE35
:10530000903AF8EE677AC7ED037A7B69002B00F0DC
:105310001181BB69022B00F08380BB69022B00F274
:10532000A180BB69002B03D0BB69012B56D099E04B
:10533000884B1B6803F02003002B2DD0854B1B6886
:10534000DB0803F00303844A22FA03F3BB60BB6863
:1053500007EE903AF8EE676A7B6907EE903AF8EE4E
:10536000677A86EEA77A7B4B9B6BC3F3080307EE45
:10537000903AF8EE676A97ED036ADFED785AC6EE69
:10538000257A76EEA77AF7EE006A77EEA67A67EED0
:10539000277AC7ED077A87E07B6907EE903AF8EE47
:1053A000677ADFED6F6A86EEA77A6A4B9B6BC3F371
:1053B000080307EE903AF8EE676A97ED036ADFEDAF
:1053C000675AC6EE257A76EEA77AF7EE006A77EE90
:1053D000A67A67EE277AC7ED077A65E07B6907EE64
:1053E000903AF8EE677ADFED5F6A86EEA77A594B5E
:1053F0009B6BC3F3080307EE903AF8EE676A97EDEC
:10540000036ADFED565AC6EE257A76EEA77AF7EEF6
:10541000006A77EEA67A67EE277AC7ED077A43E04F
:105420007B6907EE903AF8EE677ADFED4F6A86EE19
:10543000A77A484B9B6BC3F3080307EE903AF8EE4C
:10544000676A97ED036ADFED455AC6EE257A76EE78
:10545000A77AF7EE006A77EEA67A67EE277AC7EDAD
:10546000077A21E07B6907EE903AF8EE677ADFED84
:105470003D6A86EEA77A374B9B6BC3F3080307EEB2
:10548000903AF8EE676A97ED036ADFED345AC6EE9C
:10549000257A76EEA77AF7EE006A77EEA67A67EEBF
:1054A000277AC7ED077A00BF2A4B9B6B5B0A03F094
:1054B0007F0307EE903AF8EE677AB7EE007A37EEA0
:1054C000877AD7ED076AC6EE877AFCEEE77A17EEA1
:1054D000902A7B681A601F4B9B6B1B0C03F07F03A9
:1054E00007EE903AF8EE677AB7EE007A37EE877AF1
:1054F000D7ED076AC6EE877AFCEEE77A17EE902AB8
:105500007B685A60134B9B6B1B0E03F07F0307EE07
:10551000903AF8EE677AB7EE007A37EE877AD7EDF1
:10552000076AC6EE877AFCEEE77A17EE902A7B6868
:105530009A6008E07B6800221A607B6800225A604B
:105540007B6800229A6000BF2437BD465DF8047B6B
:10555000704700BF004402580090D003000000468E
:105560000024744C0024744A20BCBE4B80B489B023
:1055700000AF7860A14B9B6A03F00303BB619F4BB4
:105580009B6A1B0D03F03F037B619C4BDB6A1B0A8C
:1055900003F001033B61994B5B6CDB08C3F30C0325
:1055A0003A6902FB03F307EE903AF8EE677AC7ED2B
:1055B000037A7B69002B00F01181BB69022B00F09C
:1055C0008380BB69022B00F2A180BB69002B03D052
:1055D000BB69012B56D099E0884B1B6803F0200370
:1055E000002B2DD0854B1B68DB0803F00303844A96
:1055F00022FA03F3BB60BB6807EE903AF8EE676AE5
:105600007B6907EE903AF8EE677A86EEA77A7B4BD5
:105610001B6CC3F3080307EE903AF8EE676A97ED48
:10562000036ADFED785AC6EE257A76EEA77AF7EEB2
:10563000006A77EEA67A67EE277AC7ED077A87E0E9
:105640007B6907EE903AF8EE677ADFED6F6A86EED7
:10565000A77A6A4B1B6CC3F3080307EE903AF8EE87
:10566000676A97ED036ADFED675AC6EE257A76EE34
:10567000A77AF7EE006A77EEA67A67EE277AC7ED8B
:10568000077A65E07B6907EE903AF8EE677ADFED1E
:105690005F6A86EEA77A594B1B6CC3F3080307EECB
:1056A000903AF8EE676A97ED036ADFED565AC6EE58
:1056B000257A76EEA77AF7EE006A77EEA67A67EE9D
:1056C000277AC7ED077A43E07B6907EE903AF8EE58
:1056D000677ADFED4F6A86EEA77A484B1B6CC3F3FF
:1056E000080307EE903AF8EE676A97ED036ADFED7C
:1056F000455AC6EE257A76EEA77AF7EE006A77EE7F
:10570000A67A67EE277AC7ED077A21E07B6907EE74
:10571000903AF8EE677ADFED3D6A86EEA77A374B6E
:105720001B6CC3F3080307EE903AF8EE676A97ED37
:10573000036ADFED345AC6EE257A76EEA77AF7EEE5
:10574000006A77EEA67A67EE277AC7ED077A00BF80
:105750002A4B1B6C5B0A03F07F0307EE903AF8EECE
:10576000677AB7EE007A37EE877AD7ED076AC6EE2A
:10577000877AFCEEE77A17EE902A7B681A601F4B57
:105780001B6C1B0C03F07F0307EE903AF8EE677A70
:10579000B7EE007A37EE877AD7ED076AC6EE877ADA
:1057A000FCEEE77A17EE902A7B685A60134B1B6C6D
:1057B0001B0E03F07F0307EE903AF8EE677AB7EE20
:1057C000007A37EE877AD7ED076AC6EE877AFCEE65
:1057D000E77A17EE902A7B689A6008E07B680022DF
:1057E0001A607B6800225A607B6800229A6000BFC2
:1057F0002437BD465DF8047B704700BF0044025863
:105800000090D003000000460024744C0024744A29
:1058100020BCBE4B80B584B000AF786039600023F7
:10582000FB73534B9B6A03F00303032B01D101234A
:1058300099E04F4B1B684E4A23F08063136002F0DF
:10584000A1FBB86008E002F09DFB0246BB68D31ADA
:10585000022B01D9032386E0454B1B6803F000634C
:10586000002BF0D1424B9B6A23F47C327B681B688F
:105870001B033F4913438B627B685B68013BC3F3A7
:1058800008027B689B68013B5B029BB21A437B6802
:10589000DB68013B1B0403F4FE031A437B681B69AE
:1058A000013B1B0603F0FE43314913438B63304B2E
:1058B000DB6A23F0C0027B685B692D491343CB622E
:1058C0002B4BDB6A23F020027B689B69284913433A
:1058D000CB62274BDB6A264A23F01003D362244BAA
:1058E000DA6B244B13407A68D269D2002049134303
:1058F000CB631F4BDB6A1E4A43F01003D3623B6845
:10590000002B06D11A4BDB6A194A43F40023D362F9
:105910000FE03B68012B06D1154BDB6A144A43F4B8
:105920008013D36205E0124BDB6A114A43F4001383
:10593000D3620F4B1B680E4A43F08063136002F082
:1059400021FBB86008E002F01DFB0246BB68D31AD9
:10595000022B01D9032306E0054B1B6803F000630B
:10596000002BF0D0FB7B18461037BD4680BD00BF32
:10597000004402580700FFFF80B584B000AF786094
:1059800039600023FB73534B9B6A03F00303032B23
:1059900001D1012399E04F4B1B684E4A23F08053FD
:1059A000136002F0EFFAB86008E002F0EBFA02468A
:1059B000BB68D31A022B01D9032386E0454B1B6831
:1059C00003F00053002BF0D1424B9B6A23F07C7212
:1059D0007B681B681B053F4913438B627B685B68D0
:1059E000013BC3F308027B689B68013B5B029BB2EF
:1059F0001A437B68DB68013B1B0403F4FE031A4374
:105A00007B681B69013B1B0603F0FE4331491343CE
:105A10000B64304BDB6A23F440627B685B692D4981
:105A20001343CB622B4BDB6A23F400727B689B69C8
:105A300028491343CB62274BDB6A264A23F4807341
:105A4000D362244B5A6C244B13407A68D269D2003B
:105A5000204913434B641F4BDB6A1E4A43F4807397
:105A6000D3623B68002B06D11A4BDB6A194A43F418
:105A70008003D3620FE03B68012B06D1154BDB6A34
:105A8000144A43F40003D36205E0124BDB6A114A67
:105A900043F08073D3620F4B1B680E4A43F0805370
:105AA000136002F06FFAB86008E002F06BFA024689
:105AB000BB68D31A022B01D9032306E0054B1B68F0
:105AC00003F00053002BF0D0FB7B18461037BD4687
:105AD00080BD00BF004402580700FFFF80B58CB0B6
